:020000040000FA
:06000000F86AF76A03D064
:0800080004EF04F0800E9B6E72
:06001000700ED36E41D01A
:0200160073D1A4
:040018000CEF04F0F5
:04001C00E0338997AD
:100020005409007FA500138CF27636E9B979379E22
:080030004786C861406EDE8DB9
:0800380012010002000000406B
:10004000501D206000000100000109022200010192
:1000500000803209040000010300000009210101B1
:10006000000122170007058103400001050C09006B
:10007000A1020900954075088100090095407508A6
:100080009100C0040309040E0346006F006F004294
:05009000006100720098
:02009500000069
:08009800100ED26ED2AEFED7AD
:1000A000900EB56E000EA96E010EA66E5A0EA85CDB
:1000B00007E00F015D9F0001948E82AE00EF04F017
:1000C00093988A98846B57D903D8F7D843D8FCD72C
:1000D00065A405D064A403D060926494659460B272
:1000E000120065A003D064A001D052D965A809D040
:1000F00064A807D0648465986082A494A3840300F4
:10010000A39465A203D064A201D0659C65AA07D020
:1001100064AA05D06AA002D04BD96A90659A65A2FC
:1001200003D064A201D06592020E8765120065A615
:1001300004D064A602D053D9659612001A0E6B6ED5
:100140000401400E0E6F050E0F6F400E0C6F000184
:10015000426B120042510DE024EE0CF0DEBE09D0DD
:10016000D9D8400EDD6E400EDF16400EDF1A880E25
:10017000DF12120094511F0B0108D8A412009851ED
:100180000008D8A412009551060819E19751DF0F15
:1001900005E0E84E09D0E84E0DD011D05C0E8E6F10
:1001A000000E8F6F090E07D06C0E8E6F000E8F6FD2
:1001B000170E01D021D08B6F938192811DD0945165
:1001C000600B200801E012009551E84E0BD0E84E7C
:1001D00013D0E84E11D0FA0F07E0E84E0DD0E84EEC
:1001E0000BD00AD0000E05D0020E8C6F000E8D6F62
:1001F00002D08B6F929193811200AAD8A688B1D8B1
:10020000400EF626000EF722072FF8D712009CD8D2
:1002100000EE48F00900F5CFEEFF822FFBD730EF5C
:1002200003F049EC03F090D800EE08F00A00EECF9E
:10023000F5FF0F00832B83BB94D8822FF8D78367F9
:1002400090D8120015D800EE48F00900F5CFEEFF67
:10025000822FFBD7F86A12000BD800EE08F0A688B0
:1002600080D8EECFF5FF0D00822FFBD77AD8F2D7DA
:10027000200EF86EF76AF66A080E826F476F12005A
:1002800015D800EE08F0EECFA8FF6CD8A6B2FED7C6
:10029000A92A822FF8D7120009D800EE48F0A680CC
:1002A000A8CFEEFFA92A822FFAD712000451A96E17
:1002B0000751826F476FA66A120002511BE0426F1E
:1002C00003C043F084A135D80251026BE84E9FD79A
:1002D000E84EA7D7E84E91D7E84E0DD0E84E11D0A2
:1002E000E84EB0D7E84EB8D7E84ED6D7E84EC8D7D4
:1002F000FF0E426F1200446F456F466F120019D80F
:1003000001D014D86096826BE86AE82EFED7822F5F
:10031000FBD7FF00D6D900EE42F015EE40F0400EBC
:10032000EFCFE6FFEE6AE82EFBD7AAD1A50E846BCD
:1003300002D05A0E8481A86E000EA96EA69E12D815
:10034000A6B2FED7A694120007513C0B826F476FEE
:100350000551F76E456F0451F66E446F1F0B836FA6
:100360001200A68EA69CA684550EA76EAA0EA76E96
:10037000A682836B1200140E626E646A080E606EB1
:1003800060BAFED7656A110E646E020E876F1200A6
:10039000656A7B0E646E636A160E6A6E65A602D08D
:1003A0006596FCD76098D8EC01F0030E876F1200B9
:1003B000000E886F24EE00F0400EDC6E100EDC6E36
:1003C000040EDC6EDD50DD50DD50880EDF6E03D88C
:1003D000000EDF6E120000D8DE50DE5012006150B9
:1003E000780B16E110EE94F024EE10F0080EDECF3C
:1003F000E6FFE82EFCD724EE00F0000E616206D086
:10040000DF503C0B340801E163D004D0040E61627C
:1004100012000AD0020E886306D01FD8C80EDFACC7
:10042000880EDF6E1200C4D724EE04F0DFBEFED7C4
:10043000040E876308D09651636EFF0BD8A4050E97
:10044000D8B4030E876F010E886306D018D8C80E83
:10045000DFAC880E046F1200ABD7DC509C6F8B278B
:1004600014EE50F08DC0EAFF8CC0E9FFE6CFEEFF3E
:100470009C2FFCD7E9CF8CF0EACF8DF01200400E14
:100480008B6102D08B5123E09D6FDF92DF90DC6E99
:100490008B5F04EE50F092B10FD09D5118E08FC0E9
:1004A000E2FF8EC0E1FFE6CFEEFF9D2FFCD7E1CF4C
:1004B0008EF0E2CF8FF00BD0F86AF76A8E51F66EAD
:1004C0000900F5CFEEFF9D2FFBD7F6CF8EF012007F
:1004D000000E886F936B8B6B9451600BD8B404D073
:1004E0002008D8B477D078D0955117E0E84E22D0C4
:1004F000E806E84E1FD0E806E84E1DD0E84E1FD0B3
:10050000E84E42D0E84E41D0E84E48D0E84E53D0B5
:10051000E84E5AD0E84E5CD05FD004EE50F0EE6A60
:10052000EE6A500E8E6F040E8F6F000E020E8B6FF0
:1005300093814FD04ED09381040E876F4AD0938120
:100540009751E84E0AD0E84E0CD0E84E0ED0E84E57
:1005500016D0E84E15D0936B3CD0380E8E6F120E2D
:1005600010D04A0E8E6F220E0CD0965104E1830EED
:100570008E6F040E03D0870E8E6F160E02D0EBD74F
:10058000EAD78B6F928125D024D09381890E8E6F0C
:10059000000E8F6F9291010E8B6F1BD093816B6A4F
:1005A0009651896FFF0B04E0060E876FC7DD02D0FE
:1005B000050E876F0ED093818A0E8E6F000E8F6F9F
:1005C0009291010E8B6F05D0938196C08AF001D075
:1005D00000D003D0CFDD04D034D093B101D0FAD70E
:1005E000609893A12ED094AF1CD09A518B618B6FE1
:1005F00024EE04F044DF010E886F24EE03F0040EB5
:10060000DD6E100EDD6E400EDD6E800EDD6E24EEB2
:1006100007F0040EDD6E500EDD6EDD50C80EDD6E8F
:100620000FD0020E886F24EE05F0DD6AC80EDD6E75
:10063000040EDD6E500EDD6E400EDD6EC80EDD6EFA
:10064000120024EE03F0040EDD6E100EDD6E400E7F
:10065000DD6E840EDF6EBFDE840EDF6E60981200EA
:100660002BD820EE48F010EE4CF034D841D857D8B3
:100670002C0EB0D84AD853D8AA2FF8D732D8F5E1E3
:10068000ACC0E1FFADC0E2FFAEC0D9FFAFC0DAFF42
:10069000120012D810EE08F020EE0CF01BD8340E29
:1006A00099D833D83FD8300E95D822D83BD8AA2F26
:1006B000F8D717D8F3E1E4D7F76A0751380B076F7B
:1006C000AB6FE1CFACF0E2CFADF0D9CFAEF0DACF87
:1006D000AFF012009E6B9F6BA06BA16B400EAA6FD8
:1006E00012000BD80AD80DD80CD8080EAB5F120038
:1006F00047D807D80CD89E51120000D8E650E650D3
:10070000120000D8DE50DE501200F7DF4ED80DD8B0
:1007100050D843D89F51E840E840E840120052D8F2
:1007200048D826D04FD845D82FD0DFCFA2F0DECF83
:10073000A6F0DFCFA3F0DECFA7F0DFCFA4F0DECFAF
:10074000A8F0DFCFA5F0DECFA9F02FD80AD809D8BE
:1007500001D801D800D8D890A933A833A733A6333D
:10076000120000D8D890A237A337A437A5371200BB
:10077000A251E626A351E622A451E622A551E62283
:1007800000D8E550E5501200A251E65EA351E65AAA
:10079000A451E65AA551E65AF3D7DE50A227DE50FF
:1007A000A323DE50A423DE50A52300D8DD50DD5066
:1007B0001200A651A21BA751A31BA851A41BA9510B
:1007C000A51B1200030BE846E8461C0FF66E00EE70
:1007D000A6F003D0F66E00EE9EF009009E51F524BF
:1007E000EE6E09009F51F520EE6E0900A051F52034
:0C07F000EE6E0900A151F520EE6E120023
:02080000FFD720
:020000040030CA
:0100000023DC
:010001006896
:010002005F9E
:0100030022DA
:010005009268
:010006008178
:0100080000F7
:0100090000F6
:01000A000FE6
:01000B008074
:01000C000FE4
:01000D0000F2
:00000001FF
